:03000000020003F8
:1000030078FFE4F6D8FD9000007F007E01E4F0A3C2
:0A001300DFFCDEFA758124020058BC
:07042A00D291D290020437C9
:0F03DD00D291120437D290120437C29102043722
:0F03EC00C291120437D290120437D29102043713
:100355008F13C290120437E51324FF9291120437CC
:0F036500D290120437C290120437D2910204379B
:1002BD00E4F513D291D29012043730910EE513C3A9
:1002CD0094FF5007120437051380EFA291E433F524
:0A02DD0013C2907F011203BBAF13A0
:0102E70022F4
:100290008F14E4F513E51425E0F514C29012043729
:1002A0009291120437D2901204370513E513C394C8
:0D02B0000840E2C290120437D291020437D8
:10026100C290120437D291120437E4F513D29012DE
:100271000437E51425E0FFA291E4334FF514C29051
:0E0281001204370513E513C3940840E1AF14CF
:01028F00224C
:080197008F098B0A8A0B890C09
:10019F001203DD7FE81202901202BDEF7048AF0923
:1001AF001202901202BDEF7039F50FE50FC3950DD6
:1001BF005022AB0AAA0BA90C850F8275830012027D
:1001CF0000FF1202901202BDBF0105E4F50F80047B
:1001DF00050F80D7E50FB50D05750E01800D7FE377
:1001EF0080067FE280027FE11202E81203ECAF0E7D
:0101FF0022DD
:08011E008F0C8B0D8A0E890F76
:100126001203DD7FE81202901202BDEF7058AF0C89
:100136001202901202BDEF70491203DD7FE912022E
:10014600901202BDEF7037F512E512C395105026D6
:10015600120261AB0DAA0EA90F851282758300EFFC
:1001660012023FE51014B512047F018002E4FF126B
:100176000355051280D3751101120437800D7FE3F4
:1001860080067FE280027FE11202E81203ECAF11E3
:010196002246
:0104370022A2
:100374008F081202E87B007A007922AF0812030F7B
:0D038400EF6004AF2280027FE01202E82249
:10009D001204141204087D847F091203917FE87EF7
:1000AD00031203357D11E4FF1203917FE87E0312E5
:1000BD0003357D3B7F081203917FE87E03120335E4
:1000CD007D227F0C1203917F011203747F647E00E9
:1000DD001203357F021203747F647E001203357F95
:1000ED00081203747F647E001203357F09120374B6
:1000FD007F647E001203357F0F1203747F647E00D0
:10010D001203357F101203747F107E271203358082
:01011D00B62B
:0C03FB00E4FFE4FE0EBEA5FC0FBF08F6F8
:0104070022D2
:1003BB00E4FEEEC39F5009E4FD0DBD08FC0E80F278
:0103CB00220F
:10033500E4FDFCC3ED9FEC9E5015E4FBFA0BBB00FE
:0F034500010ABA03F8BB6EF50DBD00010C80E490
:010354002286
:0202E800AD0760
:1002EA007C08C2951203FBAF041CEF6013ED30E0EB
:1002FA0004D2958002C2951203FBEDC313FD80E779
:05030A00D2950203FB87
:0C03A8000A15000000000000000000002A
:0C040800C286C28743D580D297C28222F0
:10030F008B098A0A890B7B007A0079157510011207
:10031F00011EEF600EAB09AA0AA90BE51512022DFB
:06032F007F01227F002285
:100391008D087B007A007908750D01120197EF60D5
:0703A100037F01227F00220F
:0603B40002230000C1005D
:060431008FAC43AC8022F9
:0B04140075AB0875AF1FD2BAD2AF2243
:1003CC00E4AFADEF75F010A4FFAEF0ADAEEF4DFFA6
:0103DC0022FE
:0B041F007F031204313000FDC20022F8
:10001D0002009DE493A3F8E493A34003F68001F25C
:10002D0008DFF48029E493A3F85407240CC8C333E4
:10003D00C4540F4420C8834004F456800146F6DFB3
:10004D00E4800B01020408102040809003A8E47E98
:10005D00019360BCA3FF543F30E509541FFEE493A8
:10006D00A360010ECF54C025E060A840B8E493A36F
:10007D00FAE493A3F8E493A3C8C582C8CAC583CA9A
:10008D00F0A3C8C582C8CAC583CADFE9DEE780BE52
:0103BA000042
:10020000BB010CE58229F582E5833AF583E02250B3
:1002100006E92582F8E622BBFE06E92582F8E222FD
:0D022000E58229F582E5833AF583E4932217
:10022D00BB010689828A83F0225002F722BBFE01B0
:02023D00F322AA
:10023F00F8BB010DE58229F582E5833AF583E8F0F5
:10024F00225006E92582C8F622BBFE05E92582C8A1
:02025F00F22289
:00000001FF
